{
  "_format": "hh-sol-artifact-1",
  "contractName": "GuardianLog",
  "sourceName": "contracts/contractLog.sol",
  "abi": [
    {
      "anonymous": false,
      "inputs": [
        {
          "indexed": true,
          "internalType": "uint256",
          "name": "id",
          "type": "uint256"
        },
        {
          "indexed": false,
          "internalType": "string",
          "name": "evidenceHash",
          "type": "string"
        },
        {
          "indexed": false,
          "internalType": "string",
          "name": "s3Url",
          "type": "string"
        }
      ],
      "name": "EvidenceLogged",
      "type": "event"
    },
    {
      "inputs": [
        {
          "internalType": "uint256",
          "name": "",
          "type": "uint256"
        }
      ],
      "name": "evidenceLogs",
      "outputs": [
        {
          "internalType": "uint256",
          "name": "id",
          "type": "uint256"
        },
        {
          "internalType": "uint256",
          "name": "timestamp",
          "type": "uint256"
        },
        {
          "internalType": "string",
          "name": "evidenceHash",
          "type": "string"
        },
        {
          "internalType": "string",
          "name": "s3Url",
          "type": "string"
        },
        {
          "internalType": "address",
          "name": "loggedBy",
          "type": "address"
        }
      ],
      "stateMutability": "view",
      "type": "function"
    },
    {
      "inputs": [
        {
          "internalType": "string",
          "name": "_evidenceHash",
          "type": "string"
        },
        {
          "internalType": "string",
          "name": "_s3Url",
          "type": "string"
        },
        {
          "internalType": "string",
          "name": "_gpsCoordinates",
          "type": "string"
        }
      ],
      "name": "logEvidence",
      "outputs": [],
      "stateMutability": "nonpayable",
      "type": "function"
    }
  ],
  "bytecode": "0x608060405234801561001057600080fd5b50610a7c806100206000396000f3fe608060405234801561001057600080fd5b50600436106100365760003560e01c8063813370fc1461003b5780639792d4891461006f575b600080fd5b61005560048036038101906100509190610370565b61008b565b60405161006695949392919061047d565b60405180910390f35b61008960048036038101906100849190610613565b6101f1565b005b60016020528060005260406000206000915090508060000154908060010154908060020180546100ba906106e9565b80601f01602080910402602001604051908101604052809291908181526020018280546100e6906106e9565b80156101335780601f1061010857610100808354040283529160200191610133565b820191906000526020600020905b81548152906001019060200180831161011657829003601f168201915b505050505090806003018054610148906106e9565b80601f0160208091040260200160405190810160405280929190818152602001828054610174906106e9565b80156101c15780601f10610196576101008083540402835291602001916101c1565b820191906000526020600020905b8154815290600101906020018083116101a457829003601f168201915b5050505050908060040160009054906101000a900473ffffffffffffffffffffffffffffffffffffffff16905085565b60008081548092919061020390610749565b91905055506040518060a0016040528060005481526020014281526020018481526020018381526020013373ffffffffffffffffffffffffffffffffffffffff16815250600160008054815260200190815260200160002060008201518160000155602082015181600101556040820151816002019081610284919061093d565b50606082015181600301908161029a919061093d565b5060808201518160040160006101000a81548173ffffffffffffffffffffffffffffffffffffffff021916908373ffffffffffffffffffffffffffffffffffffffff1602179055509050506000547f9eba997e2c72220b310687de525d5e69604c30ebf58f95e30679ce69a56432e98484604051610319929190610a0f565b60405180910390a2505050565b6000604051905090565b600080fd5b600080fd5b6000819050919050565b61034d8161033a565b811461035857600080fd5b50565b60008135905061036a81610344565b92915050565b60006020828403121561038657610385610330565b5b60006103948482850161035b565b91505092915050565b6103a68161033a565b82525050565b600081519050919050565b600082825260208201905092915050565b60005b838110156103e65780820151818401526020810190506103cb565b60008484015250505050565b6000601f19601f8301169050919050565b600061040e826103ac565b61041881856103b7565b93506104288185602086016103c8565b610431816103f2565b840191505092915050565b600073ffffffffffffffffffffffffffffffffffffffff82169050919050565b60006104678261043c565b9050919050565b6104778161045c565b82525050565b600060a082019050610492600083018861039d565b61049f602083018761039d565b81810360408301526104b18186610403565b905081810360608301526104c58185610403565b90506104d4608083018461046e565b9695505050505050565b600080fd5b600080fd5b7f4e487b7100000000000000000000000000000000000000000000000000000000600052604160045260246000fd5b610520826103f2565b810181811067ffffffffffffffff8211171561053f5761053e6104e8565b5b80604052505050565b6000610552610326565b905061055e8282610517565b919050565b600067ffffffffffffffff82111561057e5761057d6104e8565b5b610587826103f2565b9050602081019050919050565b82818337600083830152505050565b60006105b66105b184610563565b610548565b9050828152602081018484840111156105d2576105d16104e3565b5b6105dd848285610594565b509392505050565b600082601f8301126105fa576105f96104de565b5b813561060a8482602086016105a3565b91505092915050565b60008060006060848603121561062c5761062b610330565b5b600084013567ffffffffffffffff81111561064a57610649610335565b5b610656868287016105e5565b935050602084013567ffffffffffffffff81111561067757610676610335565b5b610683868287016105e5565b925050604084013567ffffffffffffffff8111156106a4576106a3610335565b5b6106b0868287016105e5565b9150509250925092565b7f4e487b7100000000000000000000000000000000000000000000000000000000600052602260045260246000fd5b6000600282049050600182168061070157607f821691505b602082108103610714576107136106ba565b5b50919050565b7f4e487b7100000000000000000000000000000000000000000000000000000000600052601160045260246000fd5b60006107548261033a565b91507fffffffffffffffffffffffffffffffffffffffffffffffffffffffffffffffff82036107865761078561071a565b5b600182019050919050565b60008190508160005260206000209050919050565b60006020601f8301049050919050565b600082821b905092915050565b6000600883026107f37fffffffffffffffffffffffffffffffffffffffffffffffffffffffffffffffff826107b6565b6107fd86836107b6565b95508019841693508086168417925050509392505050565b6000819050919050565b600061083a6108356108308461033a565b610815565b61033a565b9050919050565b6000819050919050565b6108548361081f565b61086861086082610841565b8484546107c3565b825550505050565b600090565b61087d610870565b61088881848461084b565b505050565b5b818110156108ac576108a1600082610875565b60018101905061088e565b5050565b601f8211156108f1576108c281610791565b6108cb846107a6565b810160208510156108da578190505b6108ee6108e6856107a6565b83018261088d565b50505b505050565b600082821c905092915050565b6000610914600019846008026108f6565b1980831691505092915050565b600061092d8383610903565b9150826002028217905092915050565b610946826103ac565b67ffffffffffffffff81111561095f5761095e6104e8565b5b61096982546106e9565b6109748282856108b0565b600060209050601f8311600181146109a75760008415610995578287015190505b61099f8582610921565b865550610a07565b601f1984166109b586610791565b60005b828110156109dd578489015182556001820191506020850194506020810190506109b8565b868310156109fa57848901516109f6601f891682610903565b8355505b6001600288020188555050505b505050505050565b60006040820190508181036000830152610a298185610403565b90508181036020830152610a3d8184610403565b9050939250505056fea26469706673582212205cf78ffd0a183b763b153bacadf79f94269dcfcc5f2828edeea79e2b97ca2e0364736f6c63430008180033",
  "linkReferences": {},
  "deployedLinkReferences": {}
}